:400000000080002011000000B5080000B508000080B500AF00F058FC80B500AF1C4B12221A6000F0A3FE012000F0B0FE182000F0CFFC184B184A1A60184B184A1268022190
:400040000A431A60164B174A1A60174B00221A60164B164A126808218A431A60FA23DB00180000F0A7FD124B180000F01FFE114B802212061A60104B802212031A600F4B38
:4000800000221A60024B11221A60C046BD4680BD3000104004010B400600008078002E407C002E402D3E000064F02E406CF02E40DC05000008010B4000010B400C020B406D
:4000C00080B582B000AF72B62E4B00221A60FB1D00221A7022E0FB1D1A7813005B009B185B00294A9B183B603B681A78597809020A43997809040A43DB781B061343180055
:400100003B681A795B791B0213439BB2190000F0ADFBFB1D1A78FB1D01321A70FB1D1B78012BD8D9194BEE2212061A60184B992212041A60174B992212041A60164B9922C0
:4001400012041A60154B992212041A60144A144B1B78DBB206210B43DBB21370114B124A1A60124B124A1A60124B134A1A60134B134A1A60FFF750FF00F088FBC046BD4653
:4001800002B080BD6CF02E400C1300000000024000500F4010500F4020500F4030500F4000700F40080004400600DB0008010440860D180008020440B66D1B00080304408A
:4001C000B66D030010B5064C2378002B07D1054B002B02D0044800E000BF0123237010BD4801002000000000C0110000084B10B5002B03D00749084800E000BF074803681F
:40020000002B00D110BD064B002BFBD09847F9E7000000004C010020C0110000C80000200000000080B500AF62B600F0F1FA00F077FA0D4B180000F01FFA0021012000F0E6
:400240003BFA094B180000F09DFA084B180000F00FF8054A054B1100180000F057F900231800BD4680BDC046C4110000A001002080B584B000AF78607B6800221A707B6873
:4002800000225A700023FB6007E0074AFB68D31800221A70FB680133FB60FB683B2BF4DDC046BD4604B080BD6401002080B584B000AF78600A00FB1C1A707B681B78392B22
:4002C00046D8002000F00EFFFB1C19780F23FB18214A49008A5C1A70FB1C1A780E23FB181D4952008A18013212781A700F23FB181A787B681100180000F0A8F8FA239B00F9
:40030000180000F0ADFC7B680121180000F062F8FA239B00180000F0A3FC0E23FB181A787B681100180000F091F8FA239B00180000F096FC7B680121180000F00FF8FA2368
:400340009B00180000F08CFC012000F0CBFE00E0C046BD4604B080BDCC11000080B584B000AF78600A00FB1C1A70002000F0BAFEFB1C1B78180000F029FDA4239B00BB6009
:400380000023FB600DE0012000F046FDFA235B00180000F08BFC002000F03EFDFB680133FB60FA68BB689A42EDDB7B681A78FB1C1B78002B01D0012300E0FF23D318DAB259
:4003C0007B681A70012000F08DFEC046BD4604B080BDC04680B584B000AF78600A00FB1C1A70002000F07EFEFB1C1B78180000F0EDFCC8235B00BB600023FB600DE0012045
:4004000000F00AFDFA235B00180000F04FFC002000F002FDFB680133FB60FA68BB689A42EDDB7B681A78FB1C1B78002B01D0012300E0FF23D318DAB27B681A70012000F09A
:4004400051FEC046BD4604B080BDC04680B588B000AF78600A00FB1C1A70FB1C1B78072B4BD87B681B781A00274B9B5CBB61FB1C1A78BB69D31A7B617B69002B3FD00020A6
:4004800000F030FE7B69DA17D31ADB0FDAB21323FB181A701323FB181B78180000F0E4FC7B69D9175A184A4013009B009B189B01FB600023FB610DE0012000F0FDFCFA2394
:4004C0005B00180000F0F2FB002000F0F5FCFB690133FB61FA69FB689A42EDDB7B681B781900094BFA1C12785A547B68FA1C12785A70012000F0F6FD02E0C04600E0C046FD
:40050000BD4608B080BDC0466401002080B584B000AF786039603B68002B15D00023FB600BE0FB683A68D3181A787B6811001800FFF7BCFEFB680133FB60FB683A68D31873
:400540001B78002BEDD100E0C046BD4604B080BD80B500AF012000F0D7FCFA235B00180000F0A4FB002000F0CFFCFA235B00180000F09CFBC046BD4680BDC04680B582B099
:4005800000AF0200FB1D1A70FB1D1B7801221340180000F009FDFB1D1B785B08DBB21A0001231340180000F025FDFB1D1B789B08DBB21A0001231340180000F06BFDFB1D6F
:4005C0001B78DB08DBB21A0001231340180000F039FDFFF7BDFFC046BD4602B080BDC04680B582B000AF0200FB1D1A70BB1D0A1C1A70BB1D1B78180000F0AEFCFB1D1B786F
:400600001B09DBB21800FFF7B9FFFB1D1B780F221340DBB21800FFF7B1FFC046BD4602B080BDC04680B500AF00210120FFF7D8FFC046BD4680BDC04680B582B000AF020074
:40064000FB1D1A70FB1D1B7800211800FFF7C8FFC046BD4602B080BD80B582B000AF0200FB1D1A70FB1D1B7801211800FFF7B8FFC046BD4602B080BD80B584B000AF78600B
:400680007B68002B13D00023FB6009E0FB687A68D3181B781800FFF7DFFFFB680133FB60FB687A68D3181B78002BEFD100E0C046BD4604B080BDC04680B584B000AF020099
:4006C000FB1D1A70BB1D0A1C1A70FB1D1B78012B21D8BB1D1B78272B1DD8FB1D1B78002B01D1002200E040220F23FB181A700F23FB180F22B918BA1D097812788A181A701E
:400700000F23FB181B78802252421343DBB21800FFF792FF00E0C046BD4604B080BDC04680B582B000AF00237B6021E07B680833DBB2DB00DBB21800FFF77EFF00233B60D8
:400740000CE00F4A7B68DB00D2183B68D3181B781800FFF781FF3B6801333B603B68072BEFDD00210020FFF7A7FF7B6801337B607B68072BDADDC046BD4602B080BDC04631
:40078000CC12000080B584B000AF78607B68002B37D00B23FB1800221A700023FB6029E0FB687A68D2180A23FB1812781A700A23FB1819780B23FB18144A49008A5C1A7036
:4007C0000B23FB181B781800FFF746FF0A23FB181A780B23FB180D4952008A18013212781A700B23FB181B781800FFF735FFFB680133FB60FB687A68D3181B78002BCFD198
:4008000000E0C046BD4604B080BDC046CC11000080B500AF0F2000F023FA0320FFF7AEFE052000F01DFA0320FFF7A8FEFA239B00180000F03BFA0320FFF7A0FE0220FFF767
:400840009DFE2C20FFF7F8FE0820FFF7F5FEFFF7E9FE022000F004FA0620FFF7EDFE0F20FFF7EAFEC046BD4680BDC04680B582B000AF786039603A687B680021180000F012
:4008800097FCC046BD4602B080BDC04680B500AF054B03221A60054B03221A60044B00221A60C046BD4680BD3000304030003140000E3F4080B500AF00F04EFC03001B6842
:4008C0000C2B00D1FEE7FEE780B586B000AF224B7B61224B3B61204B7B6135E03B691B68FB603B695B68BB603B699B683B6000237B600CE0FB681A68BB681A60BB68043352
:40090000BB60FB680433FB607B6804337B607A683B689A42EED13B69DB683B6000237B6008E0BB6800221A60BB680433BB607B6804337B607A683B689A42F2D13B691033F6
:400940003B617B69013B7B617B69002BC6D100F009FCFFF767FCFEE7010000006C13000080B582B000AF154B144A126801218A431A6000237B600FE07B68032B04D8104B9A
:400980007A689200D35800E00E4B0F4A796889008B507B6801337B607B682F2BECD9FFF78FFB0A4B00221A60044B044A126801210A431A60C046BD4602B080BD0000104014
:4009C00000000000B508000000000020C000002090B585B000AF78600C23FC1800F0B5FB030023707B68022B00D8AFE07B68302B00D9ABE05C4B1B78DBB21A007B689A4207
:400A00000AD35A4A0F23FB1812781A70584A0E23FB1812781A703FE0564B1B78DBB21A007B689A420AD3544A0F23FB1812781A70524A0E23FB1812781A702DE0504B1B7826
:400A4000DBB21A007B689A420AD34E4A0F23FB1812781A704C4A0E23FB1812781A701BE04A4B1B78DBB21A007B689A420AD3484A0F23FB1812781A70464A0E23FB181278A5
:400A80001A7009E0444A0F23FB1812781A70434A0E23FB1812781A707B68DA1E0B23FB183F498A5C1A700B23FB181B782F2B0DD97B682A2B0AD93B4B19221A60052000F064
:400AC0003BFB0D23FB1819221A7007E0354B1B68DAB20D23FB183F210A401A700B23FA180D23FB1812781B789A4208D22D4B7A68033A2B498A5C1A60052000F01DFB2A4B68
:400B00007A6826498C4662441278D2B21A60274B0F22BA1812781A60254B0E22BA1812781A60052000F0C2F80B23FA180D23FB1812781B789A420CD91A4B7A68033A184960
:400B40008A5C1A60052000F0F7FA02E0002000F07BF80C23FB181B78180000F0FAFAC046BD4605B090BDC04640F3FF0F41F3FF0F42F3FF0F43F3FF0F44F3FF0F45F3FF0F33
:400B800046F3FF0F47F3FF0F48F3FF0F49F3FF0F4AF3FF0F4BF3FF0F4CF3FF0F4DF3FF0F181300002CFF0B4028FF0B401CFF0B4020FF0B4080B584B000AF78600023FB6090
:400BC000154B154A126801210A431A60134B144A1A60144B134A1268802109020A431A607B68002B12D01023FB600CE0012000F05DF800F019F8031E02D00023FB6005E0CD
:400C00007B68013B7B607B68002BEFD1FB681800BD4604B080BDC04660F02E4078002E400220000010002E4080B582B000AF054B1B68012213407B607B681800BD4602B049
:400C400080BDC0460C002E4080B582B000AF0200FB1D1A7001BEC046BD4602B080BDC04680B582B000AF786009E00D4B1B68180000F062FA7B680B4A944663447B607A68B4
:400C800080231B029A42F0D8074B1B687A685343180000F051FAC046BD4602B080BDC046D80000200080FFFFD000002080B582B000AF0200BB1D1A80BB1D1B88044A1278EF
:400CC0005343180000F038FAC046BD4602B080BDD400002080B500AF0F4B0F4A126801218A431A600C4B0C4A126802218A431A600A4B0A4A126830218A4310210A431A60F4
:400D0000064B064A126807218A4301210A431A60C046BD4680BDC04600F02E4000FF2E4080B500AF0F4B0F4A126802218A431A600D4B0D4A126807218A4302210A431A6020
:400D4000094B094A126830218A4320210A431A60044B044A126801210A431A60C046BD4680BDC04600F02E4000FF2E4080B500AFFFF7B0FF044B044A1268802109060A4378
:400D80001A60C046BD4680BD00F02E4080B584B000AF78600C4B1B6801221340FB607B68002B02D0012B03D005E0FFF793FF06E0FFF7B6FF03E00020FFF746FFC046FB68F6
:400DC0001800BD4604B080BD00F02E4080B584B000AF0200FB1D1A700E4B1B68DAB20F23FB1801218A431A70FB1D1B7801221340D9B20F23FB180F22BA1812780A431A7052
:400E0000044B0F22BA1812781A60C046BD4604B080BDC0460001044080B584B000AF0200FB1D1A700F4B1B68DAB20F23FB1808218A431A70FB1D1B78DB00DBB2082213409D
:400E4000D9B20F23FB180F22BA1812780A431A70044B0F22BA1812781A60C046BD4604B080BDC0460001044080B584B000AF0200FB1D1A700F4B1B68DAB20F23FB18042114
:400E80008A431A70FB1D1B789B00DBB204221340D9B20F23FB180F22BA1812780A431A70044B0F22BA1812781A60C046BD4604B080BDC0460001044080B584B000AF0200A6
:400EC000FB1D1A700F4B1B68DAB20F23FB1840218A431A70FB1D1B789B01DBB240221340D9B20F23FB180F22BA1812780A431A70044B0F22BA1812781A60C046BD4604B01A
:400F000080BDC0460001044080B584B000AF0200FB1D1A700F4B1B68DAB20F23FB1810218A431A70FB1D1B781B01DBB210221340D9B20F23FB180F22BA1812780A431A702A
:400F4000044B0F22BA1812781A60C046BD4604B080BDC0460003044080B584B000AF0200FB1D1A700F4B1B68DAB20F23FB1820218A431A70FB1D1B785B01DBB220221340A9
:400F8000D9B20F23FB180F22BA1812780A431A70044B0F22BA1812781A60C046BD4604B080BDC0460003044080B584B000AF0200FB1D1A700E4B1B68DAB20F23FB180121D5
:400FC0008A431A70FB1D1B7801221340D9B20F23FB180F22BA1812780A431A70044B0F22BA1812781A60C046BD4604B080BDC0460003044080B584B000AF0200FB1D1A70EC
:401000000F4B1B68DAB20F23FB1802218A431A70FB1D1B78DB18DBB202221340D9B20F23FB180F22BA1812780A431A70044B0F22BA1812781A60C046BD4604B080BDC0465C
:401040000003044080B584B000AF0200FB1D1A700F4B1B68DAB20F23FB1808218A431A70FB1D1B78DB00DBB208221340D9B20F23FB180F22BA1812780A431A70044B0F22FB
:40108000BA1812781A60C046BD4604B080BDC0460003044080B584B000AF0200FB1D1A700F4B1B68DAB20F23FB1804218A431A70FB1D1B789B00DBB204221340D9B20F2324
:4010C000FB180F22BA1812780A431A70044B0F22BA1812781A60C046BD4604B080BDC0460003044080B584B000AF0200FB1D1A700F4B1B68DAB20F23FB1820218A431A70DA
:40110000FB1D1B785B01DBB220221340D9B20F23FB180F22BA1812780A431A70044B0F22BA1812781A60C046BD4604B080BDC04600000440000000000230800803D00138F2
:40114000FDD1C046C046C0467047EFF3108072B6704780F310887047014B18687047C046400100200E4B70B500251E000D4CE41AA410A54204D0AB00F35898470135F8E76A
:4011800000F0E2F8084B00251E00084CE41AA410A54204D0AB00F35898470135F8E770BD5413000054130000541300005C13000003008218934202D019700133FAE77047BA
:4011C0000000000068656C6C6F21000000000000000000000000000000000000000000000000000000000000000000000000000000000000000000000000000000000000BA
:40120000000000000000000000000000060602000000070300000000000000000000000000000000000000000000000000040506040605050504050004050404040000054B
:40124000000000000000000000000000000000000000000000000000000000000000000000000000000000000000000000000000000000000000000000000000000000006E
:401280000000000000000000000000000000050604060505050405000405040404000005000401060306010501040100030503040300020502040107030100030101010393
:4012C00001020000000000000000000000000018180000001818000000001818000000181800181818180018180018181818001818000000181800000000000000000000DB
:4013000000000000000000000000181800300F40000400400F400004030405060708090A0B0C0E0F101112131415161718191B1C1D1E1F2021222325262728292A2B2E2FA6
:401340003031323334354300F8B5C046F8BC08BC9E467047ED01000061090000F8B5C046F8BC08BC9E467047C501000080130000C8000020800000006000000000000000F6
:4013800000000000001BB700E02E00000C00000000007017010000000000000000000000000000000000000000000000000000000000000000000000461300000000000060
:4013C0000000000000000000000000000000000000000000000000000000000000000000000000000000000000000000000000000000000000000000E000002000000000ED
:4014000000000000000000000000000000000000000000000000000000000000000000000000000000000000000000000000000000000000000000000000000000000000AC
:40144000000000000000000000000000000000000000000000000000000000000000000000000000000000000000000000000000000000000000000000000000000000006C
:40148000000000000000000000000000000000000000000000000000000000000000000000000000000000000000000000000000000000000000000000000000000000002C
:4014C00000000000000000000000000000000000000000000000000000000000000000000000000000000000000000000000000000000000000000000000000000000000EC
:020000040003F7
:0200000490303A
:02000000913E2F
:0200000490402A
:4000000000000000000000000000000000000000000000000000000000000000000000000000000000000000000000000000000000000000000000000000000000000000C0
:400040000000000000000000000000000000000000000000000000000000000000000000000000000000000000000000000000000000000000000000000000000000000080
:0200000490501A
:0C00000000021A1711AA00011A1DA2E844
:0200000490600A
:0100000001FE
:00000001FF